{
  "_format": "hh-sol-artifact-1",
  "contractName": "WrittenInStone",
  "sourceName": "contracts/WrittenInStone.sol",
  "abi": [
    {
      "inputs": [
        {
          "internalType": "string",
          "name": "_name",
          "type": "string"
        }
      ],
      "stateMutability": "nonpayable",
      "type": "constructor"
    },
    {
      "inputs": [
        {
          "internalType": "string",
          "name": "content",
          "type": "string"
        }
      ],
      "name": "createPost",
      "outputs": [],
      "stateMutability": "nonpayable",
      "type": "function"
    },
    {
      "inputs": [],
      "name": "fetchMyPosts",
      "outputs": [
        {
          "components": [
            {
              "internalType": "uint256",
              "name": "id",
              "type": "uint256"
            },
            {
              "internalType": "string",
              "name": "content",
              "type": "string"
            },
            {
              "internalType": "address",
              "name": "owner",
              "type": "address"
            }
          ],
          "internalType": "struct WrittenInStone.Post[]",
          "name": "",
          "type": "tuple[]"
        }
      ],
      "stateMutability": "view",
      "type": "function"
    },
    {
      "inputs": [
        {
          "internalType": "uint256",
          "name": "id",
          "type": "uint256"
        }
      ],
      "name": "fetchPost",
      "outputs": [
        {
          "components": [
            {
              "internalType": "uint256",
              "name": "id",
              "type": "uint256"
            },
            {
              "internalType": "string",
              "name": "content",
              "type": "string"
            },
            {
              "internalType": "address",
              "name": "owner",
              "type": "address"
            }
          ],
          "internalType": "struct WrittenInStone.Post",
          "name": "",
          "type": "tuple"
        }
      ],
      "stateMutability": "view",
      "type": "function"
    },
    {
      "inputs": [],
      "name": "fetchPosts",
      "outputs": [
        {
          "components": [
            {
              "internalType": "uint256",
              "name": "id",
              "type": "uint256"
            },
            {
              "internalType": "string",
              "name": "content",
              "type": "string"
            },
            {
              "internalType": "address",
              "name": "owner",
              "type": "address"
            }
          ],
          "internalType": "struct WrittenInStone.Post[]",
          "name": "",
          "type": "tuple[]"
        }
      ],
      "stateMutability": "view",
      "type": "function"
    },
    {
      "inputs": [],
      "name": "name",
      "outputs": [
        {
          "internalType": "string",
          "name": "",
          "type": "string"
        }
      ],
      "stateMutability": "view",
      "type": "function"
    },
    {
      "inputs": [],
      "name": "owner",
      "outputs": [
        {
          "internalType": "address",
          "name": "",
          "type": "address"
        }
      ],
      "stateMutability": "view",
      "type": "function"
    }
  ],
  "bytecode": "0x60806040523480156200001157600080fd5b5060405162000e3e38038062000e3e8339810160408190526200003491620001ab565b6200006460405180606001604052806023815260200162000e1b60239139826200009360201b620006c41760201c565b80516200007990600090602084019062000105565b5050600180546001600160a01b0319163317905562000345565b620000e08282604051602401620000ac9291906200028d565b60408051601f198184030181529190526020810180516001600160e01b03908116634b5c427760e01b17909152620000e416565b5050565b80516a636f6e736f6c652e6c6f67602083016000808483855afa5050505050565b8280546200011390620002f2565b90600052602060002090601f01602090048101928262000137576000855562000182565b82601f106200015257805160ff191683800117855562000182565b8280016001018555821562000182579182015b828111156200018257825182559160200191906001019062000165565b506200019092915062000194565b5090565b5b8082111562000190576000815560010162000195565b600060208284031215620001bd578081fd5b81516001600160401b0380821115620001d4578283fd5b818401915084601f830112620001e8578283fd5b815181811115620001fd57620001fd6200032f565b604051601f8201601f19908116603f011681019083821181831017156200022857620002286200032f565b8160405282815287602084870101111562000241578586fd5b62000254836020830160208801620002bf565b979650505050505050565b6000815180845262000279816020860160208601620002bf565b601f01601f19169290920160200192915050565b604081526000620002a260408301856200025f565b8281036020840152620002b681856200025f565b95945050505050565b60005b83811015620002dc578181015183820152602001620002c2565b83811115620002ec576000848401525b50505050565b600181811c908216806200030757607f821691505b602082108114156200032957634e487b7160e01b600052602260045260246000fd5b50919050565b634e487b7160e01b600052604160045260246000fd5b610ac680620003556000396000f3fe608060405234801561001057600080fd5b50600436106100625760003560e01c806305b8eeed1461006757806306fdde031461008557806375e1e07e1461009a5780638da5cb5b146100ba578063abaddd7f146100e5578063c7303c61146100ed575b600080fd5b61006f610102565b60405161007c919061093a565b60405180910390f35b61008d610351565b60405161007c919061099b565b6100ad6100a836600461089b565b6103df565b60405161007c91906109e3565b6001546100cd906001600160a01b031681565b6040516001600160a01b03909116815260200161007c565b61006f6104bc565b6101006100fb3660046107f1565b610667565b005b6060600061010f60025490565b905060008060005b8381101561017257336003600061012f8460016109f6565b81526020810191909152604001600020600201546001600160a01b031614156101605761015d6001846109f6565b92505b8061016a81610a49565b915050610117565b5060008267ffffffffffffffff81111561019c57634e487b7160e01b600052604160045260246000fd5b6040519080825280602002602001820160405280156101d557816020015b6101c261072e565b8152602001906001900390816101ba5790505b50905060005b848110156103485733600360006101f38460016109f6565b81526020810191909152604001600020600201546001600160a01b031614156103365760006102238260016109f6565b90506000600360008381526020019081526020016000209050806040518060600160405290816000820154815260200160018201805461026290610a0e565b80601f016020809104026020016040519081016040528092919081815260200182805461028e90610a0e565b80156102db5780601f106102b0576101008083540402835291602001916102db565b820191906000526020600020905b8154815290600101906020018083116102be57829003601f168201915b5050509183525050600291909101546001600160a01b0316602090910152845185908790811061031b57634e487b7160e01b600052603260045260246000fd5b60209081029190910101526103316001866109f6565b945050505b8061034081610a49565b9150506101db565b50949350505050565b6000805461035e90610a0e565b80601f016020809104026020016040519081016040528092919081815260200182805461038a90610a0e565b80156103d75780601f106103ac576101008083540402835291602001916103d7565b820191906000526020600020905b8154815290600101906020018083116103ba57829003601f168201915b505050505081565b6103e761072e565b600360008381526020019081526020016000206040518060600160405290816000820154815260200160018201805461041f90610a0e565b80601f016020809104026020016040519081016040528092919081815260200182805461044b90610a0e565b80156104985780601f1061046d57610100808354040283529160200191610498565b820191906000526020600020905b81548152906001019060200180831161047b57829003601f168201915b5050509183525050600291909101546001600160a01b031660209091015292915050565b606060006104c960025490565b905060008167ffffffffffffffff8111156104f457634e487b7160e01b600052604160045260246000fd5b60405190808252806020026020018201604052801561052d57816020015b61051a61072e565b8152602001906001900390816105125790505b50905060005b828110156106605760006105488260016109f6565b90506000600360008381526020019081526020016000209050806040518060600160405290816000820154815260200160018201805461058790610a0e565b80601f01602080910402602001604051908101604052809291908181526020018280546105b390610a0e565b80156106005780601f106105d557610100808354040283529160200191610600565b820191906000526020600020905b8154815290600101906020018083116105e357829003601f168201915b5050509183525050600291909101546001600160a01b0316602090910152845185908590811061064057634e487b7160e01b600052603260045260246000fd5b60200260200101819052505050808061065890610a49565b915050610533565b5092915050565b610675600280546001019055565b600061068060025490565b60008181526003602090815260409091208281558451929350916106ac91600184019190860190610758565b5060020180546001600160a01b031916331790555050565b61070982826040516024016106da9291906109b5565b60408051601f198184030181529190526020810180516001600160e01b0316634b5c427760e01b17905261070d565b5050565b80516a636f6e736f6c652e6c6f67602083016000808483855afa5050505050565b6040518060600160405280600081526020016060815260200160006001600160a01b031681525090565b82805461076490610a0e565b90600052602060002090601f01602090048101928261078657600085556107cc565b82601f1061079f57805160ff19168380011785556107cc565b828001600101855582156107cc579182015b828111156107cc5782518255916020019190600101906107b1565b506107d89291506107dc565b5090565b5b808211156107d857600081556001016107dd565b600060208284031215610802578081fd5b813567ffffffffffffffff80821115610819578283fd5b818401915084601f83011261082c578283fd5b81358181111561083e5761083e610a7a565b604051601f8201601f19908116603f0116810190838211818310171561086657610866610a7a565b8160405282815287602084870101111561087e578586fd5b826020860160208301379182016020019490945295945050505050565b6000602082840312156108ac578081fd5b5035919050565b60008151808452815b818110156108d8576020818501810151868301820152016108bc565b818111156108e95782602083870101525b50601f01601f19169290920160200192915050565b80518252600060208201516060602085015261091d60608501826108b3565b6040938401516001600160a01b0316949093019390935250919050565b6000602080830181845280855180835260408601915060408160051b8701019250838701855b8281101561098e57603f1988860301845261097c8583516108fe565b94509285019290850190600101610960565b5092979650505050505050565b6020815260006109ae60208301846108b3565b9392505050565b6040815260006109c860408301856108b3565b82810360208401526109da81856108b3565b95945050505050565b6020815260006109ae60208301846108fe565b60008219821115610a0957610a09610a64565b500190565b600181811c90821680610a2257607f821691505b60208210811415610a4357634e487b7160e01b600052602260045260246000fd5b50919050565b6000600019821415610a5d57610a5d610a64565b5060010190565b634e487b7160e01b600052601160045260246000fd5b634e487b7160e01b600052604160045260246000fdfea26469706673582212203e9bdced6bf9ad64319d26714546948f60c0b80b75fc4363a0ff7ef16147ad8e64736f6c634300080400334465706c6f79696e67205772697474656e496e53746f6e652077697468206e616d653a",
  "linkReferences": {},
  "deployedLinkReferences": {}
}